{
  "_format": "hh-sol-artifact-1",
  "contractName": "UTXOToken",
  "sourceName": "contracts/UTXOToken.sol",
  "abi": [
    {
      "inputs": [
        {
          "internalType": "string",
          "name": "_name",
          "type": "string"
        },
        {
          "internalType": "string",
          "name": "_symbol",
          "type": "string"
        },
        {
          "internalType": "string",
          "name": "_bitcoinTxId",
          "type": "string"
        },
        {
          "internalType": "uint32",
          "name": "_bitcoinVout",
          "type": "uint32"
        },
        {
          "internalType": "uint256",
          "name": "_bitcoinAmount",
          "type": "uint256"
        },
        {
          "internalType": "string",
          "name": "_bitcoinAddress",
          "type": "string"
        },
        {
          "internalType": "address",
          "name": "_initialOwner",
          "type": "address"
        },
        {
          "internalType": "address",
          "name": "_registry",
          "type": "address"
        }
      ],
      "stateMutability": "nonpayable",
      "type": "constructor"
    },
    {
      "inputs": [
        {
          "internalType": "address",
          "name": "spender",
          "type": "address"
        },
        {
          "internalType": "uint256",
          "name": "allowance",
          "type": "uint256"
        },
        {
          "internalType": "uint256",
          "name": "needed",
          "type": "uint256"
        }
      ],
      "name": "ERC20InsufficientAllowance",
      "type": "error"
    },
    {
      "inputs": [
        {
          "internalType": "address",
          "name": "sender",
          "type": "address"
        },
        {
          "internalType": "uint256",
          "name": "balance",
          "type": "uint256"
        },
        {
          "internalType": "uint256",
          "name": "needed",
          "type": "uint256"
        }
      ],
      "name": "ERC20InsufficientBalance",
      "type": "error"
    },
    {
      "inputs": [
        {
          "internalType": "address",
          "name": "approver",
          "type": "address"
        }
      ],
      "name": "ERC20InvalidApprover",
      "type": "error"
    },
    {
      "inputs": [
        {
          "internalType": "address",
          "name": "receiver",
          "type": "address"
        }
      ],
      "name": "ERC20InvalidReceiver",
      "type": "error"
    },
    {
      "inputs": [
        {
          "internalType": "address",
          "name": "sender",
          "type": "address"
        }
      ],
      "name": "ERC20InvalidSender",
      "type": "error"
    },
    {
      "inputs": [
        {
          "internalType": "address",
          "name": "spender",
          "type": "address"
        }
      ],
      "name": "ERC20InvalidSpender",
      "type": "error"
    },
    {
      "inputs": [
        {
          "internalType": "address",
          "name": "owner",
          "type": "address"
        }
      ],
      "name": "OwnableInvalidOwner",
      "type": "error"
    },
    {
      "inputs": [
        {
          "internalType": "address",
          "name": "account",
          "type": "address"
        }
      ],
      "name": "OwnableUnauthorizedAccount",
      "type": "error"
    },
    {
      "anonymous": false,
      "inputs": [
        {
          "indexed": true,
          "internalType": "address",
          "name": "owner",
          "type": "address"
        },
        {
          "indexed": true,
          "internalType": "address",
          "name": "spender",
          "type": "address"
        },
        {
          "indexed": false,
          "internalType": "uint256",
          "name": "value",
          "type": "uint256"
        }
      ],
      "name": "Approval",
      "type": "event"
    },
    {
      "anonymous": false,
      "inputs": [
        {
          "indexed": true,
          "internalType": "address",
          "name": "previousOwner",
          "type": "address"
        },
        {
          "indexed": true,
          "internalType": "address",
          "name": "newOwner",
          "type": "address"
        }
      ],
      "name": "OwnershipTransferred",
      "type": "event"
    },
    {
      "anonymous": false,
      "inputs": [
        {
          "indexed": true,
          "internalType": "address",
          "name": "from",
          "type": "address"
        },
        {
          "indexed": true,
          "internalType": "address",
          "name": "to",
          "type": "address"
        },
        {
          "indexed": false,
          "internalType": "uint256",
          "name": "value",
          "type": "uint256"
        }
      ],
      "name": "Transfer",
      "type": "event"
    },
    {
      "anonymous": false,
      "inputs": [
        {
          "indexed": false,
          "internalType": "string",
          "name": "bitcoinTxId",
          "type": "string"
        },
        {
          "indexed": false,
          "internalType": "uint32",
          "name": "vout",
          "type": "uint32"
        },
        {
          "indexed": false,
          "internalType": "address",
          "name": "redeemer",
          "type": "address"
        },
        {
          "indexed": false,
          "internalType": "string",
          "name": "bitcoinDestination",
          "type": "string"
        }
      ],
      "name": "UTXORedeemed",
      "type": "event"
    },
    {
      "inputs": [
        {
          "internalType": "address",
          "name": "owner",
          "type": "address"
        },
        {
          "internalType": "address",
          "name": "spender",
          "type": "address"
        }
      ],
      "name": "allowance",
      "outputs": [
        {
          "internalType": "uint256",
          "name": "",
          "type": "uint256"
        }
      ],
      "stateMutability": "view",
      "type": "function"
    },
    {
      "inputs": [
        {
          "internalType": "address",
          "name": "spender",
          "type": "address"
        },
        {
          "internalType": "uint256",
          "name": "value",
          "type": "uint256"
        }
      ],
      "name": "approve",
      "outputs": [
        {
          "internalType": "bool",
          "name": "",
          "type": "bool"
        }
      ],
      "stateMutability": "nonpayable",
      "type": "function"
    },
    {
      "inputs": [
        {
          "internalType": "address",
          "name": "account",
          "type": "address"
        }
      ],
      "name": "balanceOf",
      "outputs": [
        {
          "internalType": "uint256",
          "name": "",
          "type": "uint256"
        }
      ],
      "stateMutability": "view",
      "type": "function"
    },
    {
      "inputs": [],
      "name": "bitcoinAddress",
      "outputs": [
        {
          "internalType": "string",
          "name": "",
          "type": "string"
        }
      ],
      "stateMutability": "view",
      "type": "function"
    },
    {
      "inputs": [],
      "name": "bitcoinAmount",
      "outputs": [
        {
          "internalType": "uint256",
          "name": "",
          "type": "uint256"
        }
      ],
      "stateMutability": "view",
      "type": "function"
    },
    {
      "inputs": [],
      "name": "bitcoinTxId",
      "outputs": [
        {
          "internalType": "string",
          "name": "",
          "type": "string"
        }
      ],
      "stateMutability": "view",
      "type": "function"
    },
    {
      "inputs": [],
      "name": "bitcoinVout",
      "outputs": [
        {
          "internalType": "uint32",
          "name": "",
          "type": "uint32"
        }
      ],
      "stateMutability": "view",
      "type": "function"
    },
    {
      "inputs": [
        {
          "internalType": "uint256",
          "name": "value",
          "type": "uint256"
        }
      ],
      "name": "burn",
      "outputs": [],
      "stateMutability": "nonpayable",
      "type": "function"
    },
    {
      "inputs": [
        {
          "internalType": "address",
          "name": "account",
          "type": "address"
        },
        {
          "internalType": "uint256",
          "name": "value",
          "type": "uint256"
        }
      ],
      "name": "burnFrom",
      "outputs": [],
      "stateMutability": "nonpayable",
      "type": "function"
    },
    {
      "inputs": [],
      "name": "decimals",
      "outputs": [
        {
          "internalType": "uint8",
          "name": "",
          "type": "uint8"
        }
      ],
      "stateMutability": "view",
      "type": "function"
    },
    {
      "inputs": [],
      "name": "getUTXOInfo",
      "outputs": [
        {
          "internalType": "string",
          "name": "txId",
          "type": "string"
        },
        {
          "internalType": "uint32",
          "name": "vout",
          "type": "uint32"
        },
        {
          "internalType": "uint256",
          "name": "amount",
          "type": "uint256"
        },
        {
          "internalType": "string",
          "name": "btcAddress",
          "type": "string"
        },
        {
          "internalType": "bool",
          "name": "redeemed",
          "type": "bool"
        }
      ],
      "stateMutability": "view",
      "type": "function"
    },
    {
      "inputs": [],
      "name": "isRedeemed",
      "outputs": [
        {
          "internalType": "bool",
          "name": "",
          "type": "bool"
        }
      ],
      "stateMutability": "view",
      "type": "function"
    },
    {
      "inputs": [],
      "name": "name",
      "outputs": [
        {
          "internalType": "string",
          "name": "",
          "type": "string"
        }
      ],
      "stateMutability": "view",
      "type": "function"
    },
    {
      "inputs": [],
      "name": "owner",
      "outputs": [
        {
          "internalType": "address",
          "name": "",
          "type": "address"
        }
      ],
      "stateMutability": "view",
      "type": "function"
    },
    {
      "inputs": [
        {
          "internalType": "string",
          "name": "_bitcoinDestination",
          "type": "string"
        }
      ],
      "name": "redeemForBitcoin",
      "outputs": [],
      "stateMutability": "nonpayable",
      "type": "function"
    },
    {
      "inputs": [],
      "name": "registry",
      "outputs": [
        {
          "internalType": "address",
          "name": "",
          "type": "address"
        }
      ],
      "stateMutability": "view",
      "type": "function"
    },
    {
      "inputs": [],
      "name": "renounceOwnership",
      "outputs": [],
      "stateMutability": "nonpayable",
      "type": "function"
    },
    {
      "inputs": [],
      "name": "symbol",
      "outputs": [
        {
          "internalType": "string",
          "name": "",
          "type": "string"
        }
      ],
      "stateMutability": "view",
      "type": "function"
    },
    {
      "inputs": [],
      "name": "totalSupply",
      "outputs": [
        {
          "internalType": "uint256",
          "name": "",
          "type": "uint256"
        }
      ],
      "stateMutability": "view",
      "type": "function"
    },
    {
      "inputs": [
        {
          "internalType": "address",
          "name": "to",
          "type": "address"
        },
        {
          "internalType": "uint256",
          "name": "value",
          "type": "uint256"
        }
      ],
      "name": "transfer",
      "outputs": [
        {
          "internalType": "bool",
          "name": "",
          "type": "bool"
        }
      ],
      "stateMutability": "nonpayable",
      "type": "function"
    },
    {
      "inputs": [
        {
          "internalType": "address",
          "name": "from",
          "type": "address"
        },
        {
          "internalType": "address",
          "name": "to",
          "type": "address"
        },
        {
          "internalType": "uint256",
          "name": "value",
          "type": "uint256"
        }
      ],
      "name": "transferFrom",
      "outputs": [
        {
          "internalType": "bool",
          "name": "",
          "type": "bool"
        }
      ],
      "stateMutability": "nonpayable",
      "type": "function"
    },
    {
      "inputs": [
        {
          "internalType": "address",
          "name": "newOwner",
          "type": "address"
        }
      ],
      "name": "transferOwnership",
      "outputs": [],
      "stateMutability": "nonpayable",
      "type": "function"
    }
  ],
  "bytecode": "0x60806040523480156200001157600080fd5b506040516200159f3803806200159f8339810160408190526200003491620003d2565b81888860036200004583826200055e565b5060046200005482826200055e565b5050506001600160a01b0381166200008757604051631e4fbdf760e01b8152600060048201526024015b60405180910390fd5b620000928162000115565b506006620000a187826200055e565b506007805463ffffffff191663ffffffff871617905560088490556009620000ca84826200055e565b50600a8054610100600160a81b0319166101006001600160a01b03841602179055620001078262000101866402540be40062000640565b62000167565b505050505050505062000676565b600580546001600160a01b038381166001600160a01b0319831681179093556040519116919082907f8be0079c531659141344cd1fd0a4f28419497f9722a3daafe3b4186f6b6457e090600090a35050565b6001600160a01b038216620001935760405163ec442f0560e01b8152600060048201526024016200007e565b620001a160008383620001a5565b5050565b6001600160a01b038316620001d4578060026000828254620001c8919062000660565b90915550620002489050565b6001600160a01b03831660009081526020819052604090205481811015620002295760405163391434e360e21b81526001600160a01b038516600482015260248101829052604481018390526064016200007e565b6001600160a01b03841660009081526020819052604090209082900390555b6001600160a01b038216620002665760028054829003905562000285565b6001600160a01b03821660009081526020819052604090208054820190555b816001600160a01b0316836001600160a01b03167fddf252ad1be2c89b69c2b068fc378daa952ba7f163c4a11628f55a4df523b3ef83604051620002cb91815260200190565b60405180910390a3505050565b634e487b7160e01b600052604160045260246000fd5b600082601f8301126200030057600080fd5b81516001600160401b03808211156200031d576200031d620002d8565b604051601f8301601f19908116603f01168101908282118183101715620003485762000348620002d8565b81604052838152602092508660208588010111156200036657600080fd5b600091505b838210156200038a57858201830151818301840152908201906200036b565b6000602085830101528094505050505092915050565b805163ffffffff81168114620003b557600080fd5b919050565b80516001600160a01b0381168114620003b557600080fd5b600080600080600080600080610100898b031215620003f057600080fd5b88516001600160401b03808211156200040857600080fd5b620004168c838d01620002ee565b995060208b01519150808211156200042d57600080fd5b6200043b8c838d01620002ee565b985060408b01519150808211156200045257600080fd5b620004608c838d01620002ee565b97506200047060608c01620003a0565b965060808b0151955060a08b01519150808211156200048e57600080fd5b506200049d8b828c01620002ee565b935050620004ae60c08a01620003ba565b9150620004be60e08a01620003ba565b90509295985092959890939650565b600181811c90821680620004e257607f821691505b6020821081036200050357634e487b7160e01b600052602260045260246000fd5b50919050565b601f82111562000559576000816000526020600020601f850160051c81016020861015620005345750805b601f850160051c820191505b81811015620005555782815560010162000540565b5050505b505050565b81516001600160401b038111156200057a576200057a620002d8565b62000592816200058b8454620004cd565b8462000509565b602080601f831160018114620005ca5760008415620005b15750858301515b600019600386901b1c1916600185901b17855562000555565b600085815260208120601f198616915b82811015620005fb57888601518255948401946001909101908401620005da565b50858210156200061a5787850151600019600388901b60f8161c191681555b5050505050600190811b01905550565b634e487b7160e01b600052601160045260246000fd5b80820281158282048414176200065a576200065a6200062a565b92915050565b808201808211156200065a576200065a6200062a565b610f1980620006866000396000f3fe608060405234801561001057600080fd5b50600436106101425760003560e01c806370a08231116100b85780638da5cb5b1161007c5780638da5cb5b146102af57806395d89b41146102c05780639c31c295146102c8578063a9059cbb146102d1578063dd62ed3e146102e4578063f2fde38b1461031d57600080fd5b806370a0823114610233578063715018a61461025c5780637651bc921461026457806379cc67901461026c5780637b1039991461027f57600080fd5b8063313ce5671161010a578063313ce567146101b657806342966c68146101c557806342f2a539146101da5780634d612ec5146101ed57806351a02dc6146102125780635d7b40741461021a57600080fd5b8063034f6b211461014757806306fdde0314610169578063095ea7b31461017e57806318160ddd1461019157806323b872dd146101a3575b600080fd5b600a546101549060ff1681565b60405190151581526020015b60405180910390f35b610171610330565b6040516101609190610b8c565b61015461018c366004610bc2565b6103c2565b6002545b604051908152602001610160565b6101546101b1366004610bec565b6103dc565b60405160128152602001610160565b6101d86101d3366004610c28565b610400565b005b6101d86101e8366004610c57565b61040d565b6007546101fd9063ffffffff1681565b60405163ffffffff9091168152602001610160565b610171610526565b6102226105b4565b604051610160959493929190610d08565b610195610241366004610d54565b6001600160a01b031660009081526020819052604090205490565b6101d8610710565b610171610724565b6101d861027a366004610bc2565b610731565b600a546102979061010090046001600160a01b031681565b6040516001600160a01b039091168152602001610160565b6005546001600160a01b0316610297565b61017161074a565b61019560085481565b6101546102df366004610bc2565b610759565b6101956102f2366004610d6f565b6001600160a01b03918216600090815260016020908152604080832093909416825291909152205490565b6101d861032b366004610d54565b610767565b60606003805461033f90610da2565b80601f016020809104026020016040519081016040528092919081815260200182805461036b90610da2565b80156103b85780601f1061038d576101008083540402835291602001916103b8565b820191906000526020600020905b81548152906001019060200180831161039b57829003601f168201915b5050505050905090565b6000336103d08185856107a2565b60019150505b92915050565b6000336103ea8582856107b4565b6103f5858585610833565b506001949350505050565b61040a3382610892565b50565b600a5460ff161561045d5760405162461bcd60e51b815260206004820152601560248201527415551613c8185b1c9958591e481c995919595b5959605a1b60448201526064015b60405180910390fd5b60025433600090815260208190526040902054146104bd5760405162461bcd60e51b815260206004820152601d60248201527f4d757374206f776e20616c6c20746f6b656e7320746f2072656465656d0000006044820152606401610454565b6104cf336104ca60025490565b610892565b600a805460ff191660011790556007546040517f5631dc8426c09dc6c00cadfbe351d54ba4baff4a237fe763276a17d3c33808f19161051b9160069163ffffffff169033908690610ddc565b60405180910390a150565b6006805461053390610da2565b80601f016020809104026020016040519081016040528092919081815260200182805461055f90610da2565b80156105ac5780601f10610581576101008083540402835291602001916105ac565b820191906000526020600020905b81548152906001019060200180831161058f57829003601f168201915b505050505081565b6060600080606060006006600760009054906101000a900463ffffffff166008546009600a60009054906101000a900460ff168480546105f390610da2565b80601f016020809104026020016040519081016040528092919081815260200182805461061f90610da2565b801561066c5780601f106106415761010080835404028352916020019161066c565b820191906000526020600020905b81548152906001019060200180831161064f57829003601f168201915b5050505050945081805461067f90610da2565b80601f01602080910402602001604051908101604052809291908181526020018280546106ab90610da2565b80156106f85780601f106106cd576101008083540402835291602001916106f8565b820191906000526020600020905b8154815290600101906020018083116106db57829003601f168201915b50505050509150945094509450945094509091929394565b6107186108c8565b61072260006108f5565b565b6009805461053390610da2565b61073c8233836107b4565b6107468282610892565b5050565b60606004805461033f90610da2565b6000336103d0818585610833565b61076f6108c8565b6001600160a01b03811661079957604051631e4fbdf760e01b815260006004820152602401610454565b61040a816108f5565b6107af8383836001610947565b505050565b6001600160a01b0383811660009081526001602090815260408083209386168352929052205460001981101561082d578181101561081e57604051637dc7a0d960e11b81526001600160a01b03841660048201526024810182905260448101839052606401610454565b61082d84848484036000610947565b50505050565b6001600160a01b03831661085d57604051634b637e8f60e11b815260006004820152602401610454565b6001600160a01b0382166108875760405163ec442f0560e01b815260006004820152602401610454565b6107af838383610a1c565b6001600160a01b0382166108bc57604051634b637e8f60e11b815260006004820152602401610454565b61074682600083610a1c565b6005546001600160a01b031633146107225760405163118cdaa760e01b8152336004820152602401610454565b600580546001600160a01b038381166001600160a01b0319831681179093556040519116919082907f8be0079c531659141344cd1fd0a4f28419497f9722a3daafe3b4186f6b6457e090600090a35050565b6001600160a01b0384166109715760405163e602df0560e01b815260006004820152602401610454565b6001600160a01b03831661099b57604051634a1406b160e11b815260006004820152602401610454565b6001600160a01b038085166000908152600160209081526040808320938716835292905220829055801561082d57826001600160a01b0316846001600160a01b03167f8c5be1e5ebec7d5bd14f71427d1e84f3dd0314c0f7b2291e5b200ac8c7c3b92584604051610a0e91815260200190565b60405180910390a350505050565b6001600160a01b038316610a47578060026000828254610a3c9190610ec2565b90915550610ab99050565b6001600160a01b03831660009081526020819052604090205481811015610a9a5760405163391434e360e21b81526001600160a01b03851660048201526024810182905260448101839052606401610454565b6001600160a01b03841660009081526020819052604090209082900390555b6001600160a01b038216610ad557600280548290039055610af4565b6001600160a01b03821660009081526020819052604090208054820190555b816001600160a01b0316836001600160a01b03167fddf252ad1be2c89b69c2b068fc378daa952ba7f163c4a11628f55a4df523b3ef83604051610b3991815260200190565b60405180910390a3505050565b6000815180845260005b81811015610b6c57602081850181015186830182015201610b50565b506000602082860101526020601f19601f83011685010191505092915050565b602081526000610b9f6020830184610b46565b9392505050565b80356001600160a01b0381168114610bbd57600080fd5b919050565b60008060408385031215610bd557600080fd5b610bde83610ba6565b946020939093013593505050565b600080600060608486031215610c0157600080fd5b610c0a84610ba6565b9250610c1860208501610ba6565b9150604084013590509250925092565b600060208284031215610c3a57600080fd5b5035919050565b634e487b7160e01b600052604160045260246000fd5b600060208284031215610c6957600080fd5b813567ffffffffffffffff80821115610c8157600080fd5b818401915084601f830112610c9557600080fd5b813581811115610ca757610ca7610c41565b604051601f8201601f19908116603f01168101908382118183101715610ccf57610ccf610c41565b81604052828152876020848701011115610ce857600080fd5b826020860160208301376000928101602001929092525095945050505050565b60a081526000610d1b60a0830188610b46565b63ffffffff871660208401528560408401528281036060840152610d3f8186610b46565b91505082151560808301529695505050505050565b600060208284031215610d6657600080fd5b610b9f82610ba6565b60008060408385031215610d8257600080fd5b610d8b83610ba6565b9150610d9960208401610ba6565b90509250929050565b600181811c90821680610db657607f821691505b602082108103610dd657634e487b7160e01b600052602260045260246000fd5b50919050565b6080815260008086548160018260011c91506001831680610dfe57607f831692505b60208084108203610e1d57634e487b7160e01b86526022600452602486fd5b6080880184905260a08801828015610e3c5760018114610e5257610e7d565b60ff198716825285151560051b82019750610e7d565b60008e81526020902060005b87811015610e7757815484820152908601908401610e5e565b83019850505b50505050505050610e96602084018763ffffffff169052565b6001600160a01b03851660408401528281036060840152610eb78185610b46565b979650505050505050565b808201808211156103d657634e487b7160e01b600052601160045260246000fdfea26469706673582212207fd8a50fc8ba731d1df5c62cfcd3fbf6ebc51432c6c475b8c1bd80f1594fe55c64736f6c63430008180033",
  "linkReferences": {},
  "deployedLinkReferences": {}
}