{
  "_format": "hh-sol-artifact-1",
  "contractName": "UTXORegistry",
  "sourceName": "contracts/UTXORegistry.sol",
  "abi": [
    {
      "inputs": [],
      "stateMutability": "nonpayable",
      "type": "constructor"
    },
    {
      "inputs": [
        {
          "internalType": "address",
          "name": "owner",
          "type": "address"
        }
      ],
      "name": "OwnableInvalidOwner",
      "type": "error"
    },
    {
      "inputs": [
        {
          "internalType": "address",
          "name": "account",
          "type": "address"
        }
      ],
      "name": "OwnableUnauthorizedAccount",
      "type": "error"
    },
    {
      "inputs": [],
      "name": "ReentrancyGuardReentrantCall",
      "type": "error"
    },
    {
      "anonymous": false,
      "inputs": [
        {
          "indexed": false,
          "internalType": "address",
          "name": "operator",
          "type": "address"
        }
      ],
      "name": "OperatorAdded",
      "type": "event"
    },
    {
      "anonymous": false,
      "inputs": [
        {
          "indexed": false,
          "internalType": "address",
          "name": "operator",
          "type": "address"
        }
      ],
      "name": "OperatorRemoved",
      "type": "event"
    },
    {
      "anonymous": false,
      "inputs": [
        {
          "indexed": true,
          "internalType": "address",
          "name": "previousOwner",
          "type": "address"
        },
        {
          "indexed": true,
          "internalType": "address",
          "name": "newOwner",
          "type": "address"
        }
      ],
      "name": "OwnershipTransferred",
      "type": "event"
    },
    {
      "anonymous": false,
      "inputs": [
        {
          "indexed": true,
          "internalType": "bytes32",
          "name": "utxoId",
          "type": "bytes32"
        },
        {
          "indexed": false,
          "internalType": "address",
          "name": "redeemer",
          "type": "address"
        },
        {
          "indexed": false,
          "internalType": "string",
          "name": "bitcoinDestination",
          "type": "string"
        }
      ],
      "name": "UTXORedeemed",
      "type": "event"
    },
    {
      "anonymous": false,
      "inputs": [
        {
          "indexed": true,
          "internalType": "bytes32",
          "name": "utxoId",
          "type": "bytes32"
        },
        {
          "indexed": false,
          "internalType": "string",
          "name": "bitcoinTxId",
          "type": "string"
        },
        {
          "indexed": false,
          "internalType": "uint32",
          "name": "bitcoinVout",
          "type": "uint32"
        },
        {
          "indexed": false,
          "internalType": "uint256",
          "name": "bitcoinAmount",
          "type": "uint256"
        },
        {
          "indexed": false,
          "internalType": "address",
          "name": "tokenAddress",
          "type": "address"
        },
        {
          "indexed": false,
          "internalType": "address",
          "name": "tokenOwner",
          "type": "address"
        }
      ],
      "name": "UTXORegistered",
      "type": "event"
    },
    {
      "inputs": [
        {
          "internalType": "address",
          "name": "_operator",
          "type": "address"
        }
      ],
      "name": "addOperator",
      "outputs": [],
      "stateMutability": "nonpayable",
      "type": "function"
    },
    {
      "inputs": [
        {
          "internalType": "bytes32",
          "name": "_utxoId",
          "type": "bytes32"
        }
      ],
      "name": "getUTXO",
      "outputs": [
        {
          "components": [
            {
              "internalType": "string",
              "name": "bitcoinTxId",
              "type": "string"
            },
            {
              "internalType": "uint32",
              "name": "bitcoinVout",
              "type": "uint32"
            },
            {
              "internalType": "uint256",
              "name": "bitcoinAmount",
              "type": "uint256"
            },
            {
              "internalType": "string",
              "name": "bitcoinAddress",
              "type": "string"
            },
            {
              "internalType": "address",
              "name": "tokenAddress",
              "type": "address"
            },
            {
              "internalType": "address",
              "name": "tokenOwner",
              "type": "address"
            },
            {
              "internalType": "bool",
              "name": "isActive",
              "type": "bool"
            },
            {
              "internalType": "uint256",
              "name": "createdAt",
              "type": "uint256"
            }
          ],
          "internalType": "struct UTXORegistry.UTXORecord",
          "name": "",
          "type": "tuple"
        }
      ],
      "stateMutability": "view",
      "type": "function"
    },
    {
      "inputs": [],
      "name": "getUTXOCount",
      "outputs": [
        {
          "internalType": "uint256",
          "name": "",
          "type": "uint256"
        }
      ],
      "stateMutability": "view",
      "type": "function"
    },
    {
      "inputs": [
        {
          "internalType": "string",
          "name": "_bitcoinTxId",
          "type": "string"
        },
        {
          "internalType": "uint32",
          "name": "_bitcoinVout",
          "type": "uint32"
        }
      ],
      "name": "getUTXOId",
      "outputs": [
        {
          "internalType": "bytes32",
          "name": "",
          "type": "bytes32"
        }
      ],
      "stateMutability": "pure",
      "type": "function"
    },
    {
      "inputs": [
        {
          "internalType": "bytes32",
          "name": "_utxoId",
          "type": "bytes32"
        },
        {
          "internalType": "address",
          "name": "_redeemer",
          "type": "address"
        },
        {
          "internalType": "string",
          "name": "_bitcoinDestination",
          "type": "string"
        }
      ],
      "name": "markUTXORedeemed",
      "outputs": [],
      "stateMutability": "nonpayable",
      "type": "function"
    },
    {
      "inputs": [
        {
          "internalType": "address",
          "name": "",
          "type": "address"
        }
      ],
      "name": "operators",
      "outputs": [
        {
          "internalType": "bool",
          "name": "",
          "type": "bool"
        }
      ],
      "stateMutability": "view",
      "type": "function"
    },
    {
      "inputs": [],
      "name": "owner",
      "outputs": [
        {
          "internalType": "address",
          "name": "",
          "type": "address"
        }
      ],
      "stateMutability": "view",
      "type": "function"
    },
    {
      "inputs": [
        {
          "internalType": "string",
          "name": "_bitcoinTxId",
          "type": "string"
        },
        {
          "internalType": "uint32",
          "name": "_bitcoinVout",
          "type": "uint32"
        },
        {
          "internalType": "uint256",
          "name": "_bitcoinAmount",
          "type": "uint256"
        },
        {
          "internalType": "string",
          "name": "_bitcoinAddress",
          "type": "string"
        },
        {
          "internalType": "address",
          "name": "_tokenOwner",
          "type": "address"
        }
      ],
      "name": "registerUTXO",
      "outputs": [
        {
          "internalType": "address",
          "name": "tokenAddress",
          "type": "address"
        }
      ],
      "stateMutability": "nonpayable",
      "type": "function"
    },
    {
      "inputs": [
        {
          "internalType": "address",
          "name": "_operator",
          "type": "address"
        }
      ],
      "name": "removeOperator",
      "outputs": [],
      "stateMutability": "nonpayable",
      "type": "function"
    },
    {
      "inputs": [],
      "name": "renounceOwnership",
      "outputs": [],
      "stateMutability": "nonpayable",
      "type": "function"
    },
    {
      "inputs": [
        {
          "internalType": "address",
          "name": "",
          "type": "address"
        }
      ],
      "name": "tokenToUtxo",
      "outputs": [
        {
          "internalType": "bytes32",
          "name": "",
          "type": "bytes32"
        }
      ],
      "stateMutability": "view",
      "type": "function"
    },
    {
      "inputs": [
        {
          "internalType": "address",
          "name": "newOwner",
          "type": "address"
        }
      ],
      "name": "transferOwnership",
      "outputs": [],
      "stateMutability": "nonpayable",
      "type": "function"
    },
    {
      "inputs": [
        {
          "internalType": "uint256",
          "name": "",
          "type": "uint256"
        }
      ],
      "name": "utxoIds",
      "outputs": [
        {
          "internalType": "bytes32",
          "name": "",
          "type": "bytes32"
        }
      ],
      "stateMutability": "view",
      "type": "function"
    },
    {
      "inputs": [
        {
          "internalType": "bytes32",
          "name": "",
          "type": "bytes32"
        }
      ],
      "name": "utxos",
      "outputs": [
        {
          "internalType": "string",
          "name": "bitcoinTxId",
          "type": "string"
        },
        {
          "internalType": "uint32",
          "name": "bitcoinVout",
          "type": "uint32"
        },
        {
          "internalType": "uint256",
          "name": "bitcoinAmount",
          "type": "uint256"
        },
        {
          "internalType": "string",
          "name": "bitcoinAddress",
          "type": "string"
        },
        {
          "internalType": "address",
          "name": "tokenAddress",
          "type": "address"
        },
        {
          "internalType": "address",
          "name": "tokenOwner",
          "type": "address"
        },
        {
          "internalType": "bool",
          "name": "isActive",
          "type": "bool"
        },
        {
          "internalType": "uint256",
          "name": "createdAt",
          "type": "uint256"
        }
      ],
      "stateMutability": "view",
      "type": "function"
    }
  ],
  "bytecode": "0x608060405234801561001057600080fd5b50338061003757604051631e4fbdf760e01b81526000600482015260240160405180910390fd5b6100408161004a565b506001805561009a565b600080546001600160a01b038381166001600160a01b0319831681178455604051919092169283917f8be0079c531659141344cd1fd0a4f28419497f9722a3daafe3b4186f6b6457e09190a35050565b612b89806100a96000396000f3fe60806040523480156200001157600080fd5b5060043610620000fd5760003560e01c80638da5cb5b1162000097578063ac8a584a116200006e578063ac8a584a1462000238578063dc639217146200024f578063e9cf59441462000266578063f2fde38b146200028c57600080fd5b80638da5cb5b14620002065780639870d7fe1462000218578063a2b3703f146200022f57600080fd5b8063715018a611620000d8578063715018a61462000183578063780f05fc146200018d5780637c8e717b14620001b35780637e85170e14620001d657600080fd5b806313e7c9d814620001025780633cf18ab9146200013d57806357b9e65b146200016a575b600080fd5b620001286200011336600462000e49565b60056020526000908152604090205460ff1681565b60405190151581526020015b60405180910390f35b620001546200014e36600462000e6e565b620002a3565b6040516200013498979695949392919062000edc565b620001816200017b36600462000ff6565b62000421565b005b6200018162000551565b620001a46200019e36600462000e6e565b62000569565b60405190815260200162000134565b620001a4620001c436600462000e49565b60036020526000908152604090205481565b620001ed620001e736600462001068565b6200058b565b6040516001600160a01b03909116815260200162000134565b6000546001600160a01b0316620001ed565b620001816200022936600462000e49565b62000902565b600454620001a4565b620001816200024936600462000e49565b62000967565b620001a46200026036600462001102565b620009c3565b6200027d6200027736600462000e6e565b620009f9565b60405162000134919062001156565b620001816200029d36600462000e49565b62000be8565b600260205260009081526040902080548190620002c09062001205565b80601f0160208091040260200160405190810160405280929190818152602001828054620002ee9062001205565b80156200033f5780601f1062000313576101008083540402835291602001916200033f565b820191906000526020600020905b8154815290600101906020018083116200032157829003601f168201915b5050505060018301546002840154600385018054949563ffffffff90931694919350906200036d9062001205565b80601f01602080910402602001604051908101604052809291908181526020018280546200039b9062001205565b8015620003ec5780601f10620003c057610100808354040283529160200191620003ec565b820191906000526020600020905b815481529060010190602001808311620003ce57829003601f168201915b505050506004830154600584015460069094015492936001600160a01b03918216939181169250600160a01b900460ff169088565b3360009081526005602052604090205460ff16806200044a57506000546001600160a01b031633145b620004965760405162461bcd60e51b81526020600482015260176024820152762737ba1030baba3437b934bd32b21037b832b930ba37b960491b60448201526064015b60405180910390fd5b600083815260026020526040902060050154600160a01b900460ff16620004f25760405162461bcd60e51b815260206004820152600f60248201526e5554584f206e6f742061637469766560881b60448201526064016200048d565b60008381526002602052604090819020600501805460ff60a01b191690555183907fb059164d75322c1e99f5093735531b75793463eeca940fe148bc24d68d806c9e9062000544908590859062001241565b60405180910390a2505050565b6200055b62000c2c565b62000567600062000c5b565b565b600481815481106200057a57600080fd5b600091825260209091200154905081565b3360009081526005602052604081205460ff1680620005b457506000546001600160a01b031633145b620005fc5760405162461bcd60e51b81526020600482015260176024820152762737ba1030baba3437b934bd32b21037b832b930ba37b960491b60448201526064016200048d565b6200060662000cab565b600086866040516020016200061d9291906200126f565b60408051808303601f19018152918152815160209283012060008181526002909352912060050154909150600160a01b900460ff1615620006a15760405162461bcd60e51b815260206004820152601760248201527f5554584f20616c7265616479207265676973746572656400000000000000000060448201526064016200048d565b600087604051602001620006b69190620012a3565b60405160208183030381529060405290506000620006da8863ffffffff1662000cd6565b604051602001620006ec9190620012d2565b6040516020818303038152906040529050600082828b8b8b8b8b30604051620007159062000e1e565b6200072898979695949392919062001300565b604051809103906000f08015801562000745573d6000803e3d6000fd5b5060408051610100810182528c815263ffffffff8c166020808301919091528183018c9052606082018b90526001600160a01b0380851660808401528a1660a0830152600160c08301524260e08301526000888152600290915291909120815192975087935090918190620007bb9082620013e8565b50602082015160018201805463ffffffff191663ffffffff9092169190911790556040820151600282015560608201516003820190620007fc9082620013e8565b506080820151600482810180546001600160a01b0319166001600160a01b0393841617905560a084015160058401805460c08701519285166001600160a81b031990911617600160a01b9215159290920291909117905560e09093015160069092019190915586166000908152600360205260408082208790558254600181018455929091527f8a35acfbc15ff81a39ae7d344fd709f28e8600b4aa8c65c6b64bfe7fe36bd19b9091018590555184907f3527513cb93f232a26bc65d7e9ac6a347d404367162d7cca9efc3bb2820c5ff690620008e3908d908d908d908b908d90620014b5565b60405180910390a250505050620008f960018055565b95945050505050565b6200090c62000c2c565b6001600160a01b038116600081815260056020908152604091829020805460ff1916600117905590519182527fac6fa858e9350a46cec16539926e0fde25b7629f84b5a72bffaae4df888ae86d91015b60405180910390a150565b6200097162000c2c565b6001600160a01b038116600081815260056020908152604091829020805460ff1916905590519182527f80c0b871b97b595b16a7741c1b06fed0c6f6f558639f18ccbce50724325dc40d91016200095c565b60008282604051602001620009da9291906200126f565b6040516020818303038152906040528051906020012090505b92915050565b60408051610100810182526060808252600060208301819052928201839052808201526080810182905260a0810182905260c0810182905260e0810191909152600082815260026020526040908190208151610100810190925280548290829062000a649062001205565b80601f016020809104026020016040519081016040528092919081815260200182805462000a929062001205565b801562000ae35780601f1062000ab75761010080835404028352916020019162000ae3565b820191906000526020600020905b81548152906001019060200180831162000ac557829003601f168201915b5050509183525050600182015463ffffffff1660208201526002820154604082015260038201805460609092019162000b1c9062001205565b80601f016020809104026020016040519081016040528092919081815260200182805462000b4a9062001205565b801562000b9b5780601f1062000b6f5761010080835404028352916020019162000b9b565b820191906000526020600020905b81548152906001019060200180831162000b7d57829003601f168201915b505050918352505060048201546001600160a01b03908116602083015260058301549081166040830152600160a01b900460ff161515606082015260069091015460809091015292915050565b62000bf262000c2c565b6001600160a01b03811662000c1e57604051631e4fbdf760e01b8152600060048201526024016200048d565b62000c298162000c5b565b50565b6000546001600160a01b03163314620005675760405163118cdaa760e01b81523360048201526024016200048d565b600080546001600160a01b038381166001600160a01b0319831681178455604051919092169283917f8be0079c531659141344cd1fd0a4f28419497f9722a3daafe3b4186f6b6457e09190a35050565b60026001540362000ccf57604051633ee5aeb560e01b815260040160405180910390fd5b6002600155565b60608160000362000cfe5750506040805180820190915260018152600360fc1b602082015290565b8160005b811562000d2e578062000d158162001513565b915062000d269050600a836200152f565b915062000d02565b60008167ffffffffffffffff81111562000d4c5762000d4c62000f4b565b6040519080825280601f01601f19166020018201604052801562000d77576020820181803683370190505b509050815b851562000e155762000d9060018262001552565b9050600062000da1600a886200152f565b62000dae90600a62001568565b62000dba908862001552565b62000dc790603062001582565b905060008160f81b90508084848151811062000de75762000de76200159e565b60200101906001600160f81b031916908160001a90535062000e0b600a896200152f565b9750505062000d7c565b50949350505050565b61159f80620015b583390190565b80356001600160a01b038116811462000e4457600080fd5b919050565b60006020828403121562000e5c57600080fd5b62000e678262000e2c565b9392505050565b60006020828403121562000e8157600080fd5b5035919050565b60005b8381101562000ea557818101518382015260200162000e8b565b50506000910152565b6000815180845262000ec881602086016020860162000e88565b601f01601f19169290920160200192915050565b600061010080835262000ef28184018c62000eae565b905063ffffffff8a166020840152886040840152828103606084015262000f1a818962000eae565b6001600160a01b0397881660808501529590961660a08301525091151560c083015260e09091015295945050505050565b634e487b7160e01b600052604160045260246000fd5b600082601f83011262000f7357600080fd5b813567ffffffffffffffff8082111562000f915762000f9162000f4b565b604051601f8301601f19908116603f0116810190828211818310171562000fbc5762000fbc62000f4b565b8160405283815286602085880101111562000fd657600080fd5b836020870160208301376000602085830101528094505050505092915050565b6000806000606084860312156200100c57600080fd5b833592506200101e6020850162000e2c565b9150604084013567ffffffffffffffff8111156200103b57600080fd5b620010498682870162000f61565b9150509250925092565b803563ffffffff8116811462000e4457600080fd5b600080600080600060a086880312156200108157600080fd5b853567ffffffffffffffff808211156200109a57600080fd5b620010a889838a0162000f61565b9650620010b86020890162001053565b9550604088013594506060880135915080821115620010d657600080fd5b50620010e58882890162000f61565b925050620010f66080870162000e2c565b90509295509295909350565b600080604083850312156200111657600080fd5b823567ffffffffffffffff8111156200112e57600080fd5b6200113c8582860162000f61565b9250506200114d6020840162001053565b90509250929050565b60208152600082516101008060208501526200117761012085018362000eae565b915063ffffffff6020860151166040850152604085015160608501526060850151601f19858403016080860152620011b0838262000eae565b9250506080850151620011ce60a08601826001600160a01b03169052565b5060a08501516001600160a01b03811660c08601525060c085015180151560e08601525060e0949094015192909301919091525090565b600181811c908216806200121a57607f821691505b6020821081036200123b57634e487b7160e01b600052602260045260246000fd5b50919050565b6001600160a01b0383168152604060208201819052600090620012679083018462000eae565b949350505050565b600083516200128381846020880162000e88565b60e09390931b6001600160e01b0319169190920190815260040192915050565b645554584f5f60d81b815260008251620012c581600585016020870162000e88565b9190910160050192915050565b635554584f60e01b815260008251620012f381600485016020870162000e88565b9190910160040192915050565b6000610100808352620013168184018c62000eae565b905082810360208401526200132c818b62000eae565b9050828103604084015262001342818a62000eae565b905063ffffffff8816606084015286608084015282810360a08401526200136a818762000eae565b6001600160a01b0395861660c08501529390941660e09092019190915250979650505050505050565b601f821115620013e3576000816000526020600020601f850160051c81016020861015620013be5750805b601f850160051c820191505b81811015620013df57828155600101620013ca565b5050505b505050565b815167ffffffffffffffff81111562001405576200140562000f4b565b6200141d8162001416845462001205565b8462001393565b602080601f8311600181146200145557600084156200143c5750858301515b600019600386901b1c1916600185901b178555620013df565b600085815260208120601f198616915b82811015620014865788860151825594840194600190910190840162001465565b5085821015620014a55787850151600019600388901b60f8161c191681555b5050505050600190811b01905550565b60a081526000620014ca60a083018862000eae565b63ffffffff9690961660208301525060408101939093526001600160a01b03918216606084015216608090910152919050565b634e487b7160e01b600052601160045260246000fd5b600060018201620015285762001528620014fd565b5060010190565b6000826200154d57634e487b7160e01b600052601260045260246000fd5b500490565b81810381811115620009f357620009f3620014fd565b8082028115828204841417620009f357620009f3620014fd565b60ff8181168382160190811115620009f357620009f3620014fd565b634e487b7160e01b600052603260045260246000fdfe60806040523480156200001157600080fd5b506040516200159f3803806200159f8339810160408190526200003491620003d2565b81888860036200004583826200055e565b5060046200005482826200055e565b5050506001600160a01b0381166200008757604051631e4fbdf760e01b8152600060048201526024015b60405180910390fd5b620000928162000115565b506006620000a187826200055e565b506007805463ffffffff191663ffffffff871617905560088490556009620000ca84826200055e565b50600a8054610100600160a81b0319166101006001600160a01b03841602179055620001078262000101866402540be40062000640565b62000167565b505050505050505062000676565b600580546001600160a01b038381166001600160a01b0319831681179093556040519116919082907f8be0079c531659141344cd1fd0a4f28419497f9722a3daafe3b4186f6b6457e090600090a35050565b6001600160a01b038216620001935760405163ec442f0560e01b8152600060048201526024016200007e565b620001a160008383620001a5565b5050565b6001600160a01b038316620001d4578060026000828254620001c8919062000660565b90915550620002489050565b6001600160a01b03831660009081526020819052604090205481811015620002295760405163391434e360e21b81526001600160a01b038516600482015260248101829052604481018390526064016200007e565b6001600160a01b03841660009081526020819052604090209082900390555b6001600160a01b038216620002665760028054829003905562000285565b6001600160a01b03821660009081526020819052604090208054820190555b816001600160a01b0316836001600160a01b03167fddf252ad1be2c89b69c2b068fc378daa952ba7f163c4a11628f55a4df523b3ef83604051620002cb91815260200190565b60405180910390a3505050565b634e487b7160e01b600052604160045260246000fd5b600082601f8301126200030057600080fd5b81516001600160401b03808211156200031d576200031d620002d8565b604051601f8301601f19908116603f01168101908282118183101715620003485762000348620002d8565b81604052838152602092508660208588010111156200036657600080fd5b600091505b838210156200038a57858201830151818301840152908201906200036b565b6000602085830101528094505050505092915050565b805163ffffffff81168114620003b557600080fd5b919050565b80516001600160a01b0381168114620003b557600080fd5b600080600080600080600080610100898b031215620003f057600080fd5b88516001600160401b03808211156200040857600080fd5b620004168c838d01620002ee565b995060208b01519150808211156200042d57600080fd5b6200043b8c838d01620002ee565b985060408b01519150808211156200045257600080fd5b620004608c838d01620002ee565b97506200047060608c01620003a0565b965060808b0151955060a08b01519150808211156200048e57600080fd5b506200049d8b828c01620002ee565b935050620004ae60c08a01620003ba565b9150620004be60e08a01620003ba565b90509295985092959890939650565b600181811c90821680620004e257607f821691505b6020821081036200050357634e487b7160e01b600052602260045260246000fd5b50919050565b601f82111562000559576000816000526020600020601f850160051c81016020861015620005345750805b601f850160051c820191505b81811015620005555782815560010162000540565b5050505b505050565b81516001600160401b038111156200057a576200057a620002d8565b62000592816200058b8454620004cd565b8462000509565b602080601f831160018114620005ca5760008415620005b15750858301515b600019600386901b1c1916600185901b17855562000555565b600085815260208120601f198616915b82811015620005fb57888601518255948401946001909101908401620005da565b50858210156200061a5787850151600019600388901b60f8161c191681555b5050505050600190811b01905550565b634e487b7160e01b600052601160045260246000fd5b80820281158282048414176200065a576200065a6200062a565b92915050565b808201808211156200065a576200065a6200062a565b610f1980620006866000396000f3fe608060405234801561001057600080fd5b50600436106101425760003560e01c806370a08231116100b85780638da5cb5b1161007c5780638da5cb5b146102af57806395d89b41146102c05780639c31c295146102c8578063a9059cbb146102d1578063dd62ed3e146102e4578063f2fde38b1461031d57600080fd5b806370a0823114610233578063715018a61461025c5780637651bc921461026457806379cc67901461026c5780637b1039991461027f57600080fd5b8063313ce5671161010a578063313ce567146101b657806342966c68146101c557806342f2a539146101da5780634d612ec5146101ed57806351a02dc6146102125780635d7b40741461021a57600080fd5b8063034f6b211461014757806306fdde0314610169578063095ea7b31461017e57806318160ddd1461019157806323b872dd146101a3575b600080fd5b600a546101549060ff1681565b60405190151581526020015b60405180910390f35b610171610330565b6040516101609190610b8c565b61015461018c366004610bc2565b6103c2565b6002545b604051908152602001610160565b6101546101b1366004610bec565b6103dc565b60405160128152602001610160565b6101d86101d3366004610c28565b610400565b005b6101d86101e8366004610c57565b61040d565b6007546101fd9063ffffffff1681565b60405163ffffffff9091168152602001610160565b610171610526565b6102226105b4565b604051610160959493929190610d08565b610195610241366004610d54565b6001600160a01b031660009081526020819052604090205490565b6101d8610710565b610171610724565b6101d861027a366004610bc2565b610731565b600a546102979061010090046001600160a01b031681565b6040516001600160a01b039091168152602001610160565b6005546001600160a01b0316610297565b61017161074a565b61019560085481565b6101546102df366004610bc2565b610759565b6101956102f2366004610d6f565b6001600160a01b03918216600090815260016020908152604080832093909416825291909152205490565b6101d861032b366004610d54565b610767565b60606003805461033f90610da2565b80601f016020809104026020016040519081016040528092919081815260200182805461036b90610da2565b80156103b85780601f1061038d576101008083540402835291602001916103b8565b820191906000526020600020905b81548152906001019060200180831161039b57829003601f168201915b5050505050905090565b6000336103d08185856107a2565b60019150505b92915050565b6000336103ea8582856107b4565b6103f5858585610833565b506001949350505050565b61040a3382610892565b50565b600a5460ff161561045d5760405162461bcd60e51b815260206004820152601560248201527415551613c8185b1c9958591e481c995919595b5959605a1b60448201526064015b60405180910390fd5b60025433600090815260208190526040902054146104bd5760405162461bcd60e51b815260206004820152601d60248201527f4d757374206f776e20616c6c20746f6b656e7320746f2072656465656d0000006044820152606401610454565b6104cf336104ca60025490565b610892565b600a805460ff191660011790556007546040517f5631dc8426c09dc6c00cadfbe351d54ba4baff4a237fe763276a17d3c33808f19161051b9160069163ffffffff169033908690610ddc565b60405180910390a150565b6006805461053390610da2565b80601f016020809104026020016040519081016040528092919081815260200182805461055f90610da2565b80156105ac5780601f10610581576101008083540402835291602001916105ac565b820191906000526020600020905b81548152906001019060200180831161058f57829003601f168201915b505050505081565b6060600080606060006006600760009054906101000a900463ffffffff166008546009600a60009054906101000a900460ff168480546105f390610da2565b80601f016020809104026020016040519081016040528092919081815260200182805461061f90610da2565b801561066c5780601f106106415761010080835404028352916020019161066c565b820191906000526020600020905b81548152906001019060200180831161064f57829003601f168201915b5050505050945081805461067f90610da2565b80601f01602080910402602001604051908101604052809291908181526020018280546106ab90610da2565b80156106f85780601f106106cd576101008083540402835291602001916106f8565b820191906000526020600020905b8154815290600101906020018083116106db57829003601f168201915b50505050509150945094509450945094509091929394565b6107186108c8565b61072260006108f5565b565b6009805461053390610da2565b61073c8233836107b4565b6107468282610892565b5050565b60606004805461033f90610da2565b6000336103d0818585610833565b61076f6108c8565b6001600160a01b03811661079957604051631e4fbdf760e01b815260006004820152602401610454565b61040a816108f5565b6107af8383836001610947565b505050565b6001600160a01b0383811660009081526001602090815260408083209386168352929052205460001981101561082d578181101561081e57604051637dc7a0d960e11b81526001600160a01b03841660048201526024810182905260448101839052606401610454565b61082d84848484036000610947565b50505050565b6001600160a01b03831661085d57604051634b637e8f60e11b815260006004820152602401610454565b6001600160a01b0382166108875760405163ec442f0560e01b815260006004820152602401610454565b6107af838383610a1c565b6001600160a01b0382166108bc57604051634b637e8f60e11b815260006004820152602401610454565b61074682600083610a1c565b6005546001600160a01b031633146107225760405163118cdaa760e01b8152336004820152602401610454565b600580546001600160a01b038381166001600160a01b0319831681179093556040519116919082907f8be0079c531659141344cd1fd0a4f28419497f9722a3daafe3b4186f6b6457e090600090a35050565b6001600160a01b0384166109715760405163e602df0560e01b815260006004820152602401610454565b6001600160a01b03831661099b57604051634a1406b160e11b815260006004820152602401610454565b6001600160a01b038085166000908152600160209081526040808320938716835292905220829055801561082d57826001600160a01b0316846001600160a01b03167f8c5be1e5ebec7d5bd14f71427d1e84f3dd0314c0f7b2291e5b200ac8c7c3b92584604051610a0e91815260200190565b60405180910390a350505050565b6001600160a01b038316610a47578060026000828254610a3c9190610ec2565b90915550610ab99050565b6001600160a01b03831660009081526020819052604090205481811015610a9a5760405163391434e360e21b81526001600160a01b03851660048201526024810182905260448101839052606401610454565b6001600160a01b03841660009081526020819052604090209082900390555b6001600160a01b038216610ad557600280548290039055610af4565b6001600160a01b03821660009081526020819052604090208054820190555b816001600160a01b0316836001600160a01b03167fddf252ad1be2c89b69c2b068fc378daa952ba7f163c4a11628f55a4df523b3ef83604051610b3991815260200190565b60405180910390a3505050565b6000815180845260005b81811015610b6c57602081850181015186830182015201610b50565b506000602082860101526020601f19601f83011685010191505092915050565b602081526000610b9f6020830184610b46565b9392505050565b80356001600160a01b0381168114610bbd57600080fd5b919050565b60008060408385031215610bd557600080fd5b610bde83610ba6565b946020939093013593505050565b600080600060608486031215610c0157600080fd5b610c0a84610ba6565b9250610c1860208501610ba6565b9150604084013590509250925092565b600060208284031215610c3a57600080fd5b5035919050565b634e487b7160e01b600052604160045260246000fd5b600060208284031215610c6957600080fd5b813567ffffffffffffffff80821115610c8157600080fd5b818401915084601f830112610c9557600080fd5b813581811115610ca757610ca7610c41565b604051601f8201601f19908116603f01168101908382118183101715610ccf57610ccf610c41565b81604052828152876020848701011115610ce857600080fd5b826020860160208301376000928101602001929092525095945050505050565b60a081526000610d1b60a0830188610b46565b63ffffffff871660208401528560408401528281036060840152610d3f8186610b46565b91505082151560808301529695505050505050565b600060208284031215610d6657600080fd5b610b9f82610ba6565b60008060408385031215610d8257600080fd5b610d8b83610ba6565b9150610d9960208401610ba6565b90509250929050565b600181811c90821680610db657607f821691505b602082108103610dd657634e487b7160e01b600052602260045260246000fd5b50919050565b6080815260008086548160018260011c91506001831680610dfe57607f831692505b60208084108203610e1d57634e487b7160e01b86526022600452602486fd5b6080880184905260a08801828015610e3c5760018114610e5257610e7d565b60ff198716825285151560051b82019750610e7d565b60008e81526020902060005b87811015610e7757815484820152908601908401610e5e565b83019850505b50505050505050610e96602084018763ffffffff169052565b6001600160a01b03851660408401528281036060840152610eb78185610b46565b979650505050505050565b808201808211156103d657634e487b7160e01b600052601160045260246000fdfea26469706673582212207fd8a50fc8ba731d1df5c62cfcd3fbf6ebc51432c6c475b8c1bd80f1594fe55c64736f6c63430008180033a264697066735822122016291fa74749224679d677e246488b5490aeb8791002f69ec57ae666201f344064736f6c63430008180033",
  "linkReferences": {},
  "deployedLinkReferences": {}
}